{
  "contractName": "Gambler",
  "abi": [
    {
      "inputs": [],
      "stateMutability": "nonpayable",
      "type": "constructor"
    },
    {
      "inputs": [
        {
          "internalType": "string",
          "name": "fighter",
          "type": "string"
        },
        {
          "internalType": "string",
          "name": "otherFighter",
          "type": "string"
        }
      ],
      "name": "createBet",
      "outputs": [],
      "stateMutability": "nonpayable",
      "type": "function"
    }
  ],
  "bytecode": "0x608060405234801561001057600080fd5b50336000806101000a81548173ffffffffffffffffffffffffffffffffffffffff021916908373ffffffffffffffffffffffffffffffffffffffff1602179055506104d7806100606000396000f3fe608060405234801561001057600080fd5b506004361061002b5760003560e01c80634de067f214610030575b600080fd5b61004a60048036038101906100459190610329565b61004c565b005b60008054906101000a900473ffffffffffffffffffffffffffffffffffffffff1673ffffffffffffffffffffffffffffffffffffffff163373ffffffffffffffffffffffffffffffffffffffff16146100da576040517f08c379a00000000000000000000000000000000000000000000000000000000081526004016100d1906103cd565b60405180910390fd5b6040518060800160405280600073ffffffffffffffffffffffffffffffffffffffff16815260200185858080601f016020809104026020016040519081016040528093929190818152602001838380828437600081840152601f19601f82011690508083019250505050505050815260200183838080601f016020809104026020016040519081016040528093929190818152602001838380828437600081840152601f19601f8201169050808301925050505050505081526020015a815250600160008201518160000160006101000a81548173ffffffffffffffffffffffffffffffffffffffff021916908373ffffffffffffffffffffffffffffffffffffffff16021790555060208201518160010190805190602001906101ff929190610230565b50604082015181600201908051906020019061021c929190610230565b506060820151816003015590505050505050565b82805461023c906103fe565b90600052602060002090601f01602090048101928261025e57600085556102a5565b82601f1061027757805160ff19168380011785556102a5565b828001600101855582156102a5579182015b828111156102a4578251825591602001919060010190610289565b5b5090506102b291906102b6565b5090565b5b808211156102cf5760008160009055506001016102b7565b5090565b60008083601f8401126102e9576102e8610464565b5b8235905067ffffffffffffffff8111156103065761030561045f565b5b60208301915083600182028301111561032257610321610469565b5b9250929050565b6000806000806040858703121561034357610342610473565b5b600085013567ffffffffffffffff8111156103615761036061046e565b5b61036d878288016102d3565b9450945050602085013567ffffffffffffffff8111156103905761038f61046e565b5b61039c878288016102d3565b925092505092959194509250565b60006103b7600d836103ed565b91506103c282610478565b602082019050919050565b600060208201905081810360008301526103e6816103aa565b9050919050565b600082825260208201905092915050565b6000600282049050600182168061041657607f821691505b6020821081141561042a57610429610430565b5b50919050565b7f4e487b7100000000000000000000000000000000000000000000000000000000600052602260045260246000fd5b600080fd5b600080fd5b600080fd5b600080fd5b600080fd5b7f4d757374206265206f776e65720000000000000000000000000000000000000060008201525056fea2646970667358221220b998c82ce276d22fbfc9ee952c03e29840db20326c3ec03155c835a91079e7df64736f6c63430008060033",
  "immutableReferences": {},
  "source": "// SPDX-License-Identifier: MIT\npragma solidity ^0.8.6;\n\ncontract Gambler {\n    address private owner;\n    Bet bet;\n\n    constructor() {\n        owner = msg.sender;\n    }\n\n    modifier onlyOwner() {\n        require(msg.sender == owner, \"Must be owner\");\n        _;\n    }\n\n    function createBet(string calldata fighter, string calldata otherFighter)\n        external\n        onlyOwner\n    {\n        bet = Bet(address(0x0), fighter, otherFighter, gasleft());\n    }\n\n    struct Bet {\n        address competitor;\n        string fighterOne;\n        string fighterTwo;\n        uint256 gas;\n    }\n}\n",
  "sourcePath": "/home/samg/Code/eth_stuff/gamble/contracts/Gambler.sol",
  "compiler": {
    "name": "solc",
    "version": "0.8.6+commit.11564f7e.Emscripten.clang"
  },
  "schemaVersion": "3.4.1",
  "updatedAt": "2021-08-07T16:16:00.215Z",
  "devdoc": {
    "kind": "dev",
    "methods": {},
    "version": 1
  },
  "userdoc": {
    "kind": "user",
    "methods": {},
    "version": 1
  }
}