{
  "contractName": "Gambler",
  "abi": [
    {
      "inputs": [],
      "stateMutability": "payable",
      "type": "constructor",
      "payable": true
    },
    {
      "inputs": [
        {
          "internalType": "bytes32",
          "name": "",
          "type": "bytes32"
        }
      ],
      "name": "bets",
      "outputs": [
        {
          "internalType": "string",
          "name": "sport",
          "type": "string"
        },
        {
          "internalType": "address",
          "name": "competitor",
          "type": "address"
        },
        {
          "internalType": "string",
          "name": "ownerPick",
          "type": "string"
        },
        {
          "internalType": "string",
          "name": "otherPick",
          "type": "string"
        },
        {
          "internalType": "string",
          "name": "eventName",
          "type": "string"
        },
        {
          "internalType": "uint256",
          "name": "amount",
          "type": "uint256"
        },
        {
          "internalType": "uint256",
          "name": "cutoffDate",
          "type": "uint256"
        },
        {
          "internalType": "uint256",
          "name": "settleDate",
          "type": "uint256"
        },
        {
          "internalType": "bool",
          "name": "didIWin",
          "type": "bool"
        }
      ],
      "stateMutability": "view",
      "type": "function",
      "constant": true
    },
    {
      "inputs": [
        {
          "internalType": "string",
          "name": "sport",
          "type": "string"
        },
        {
          "internalType": "string",
          "name": "ownerPick",
          "type": "string"
        },
        {
          "internalType": "string",
          "name": "otherPick",
          "type": "string"
        },
        {
          "internalType": "string",
          "name": "eventName",
          "type": "string"
        },
        {
          "internalType": "uint256",
          "name": "cutoffDate",
          "type": "uint256"
        },
        {
          "internalType": "uint256",
          "name": "settleDate",
          "type": "uint256"
        },
        {
          "internalType": "bytes32",
          "name": "key",
          "type": "bytes32"
        }
      ],
      "name": "createBet",
      "outputs": [],
      "stateMutability": "payable",
      "type": "function",
      "payable": true
    },
    {
      "inputs": [
        {
          "internalType": "bytes32",
          "name": "key",
          "type": "bytes32"
        }
      ],
      "name": "acceptBet",
      "outputs": [],
      "stateMutability": "payable",
      "type": "function",
      "payable": true
    },
    {
      "inputs": [
        {
          "internalType": "bytes32",
          "name": "key",
          "type": "bytes32"
        },
        {
          "internalType": "bool",
          "name": "didIWin",
          "type": "bool"
        }
      ],
      "name": "resolveBet",
      "outputs": [],
      "stateMutability": "payable",
      "type": "function",
      "payable": true
    }
  ],
  "bytecode": "0x6080604052336000806101000a81548173ffffffffffffffffffffffffffffffffffffffff021916908373ffffffffffffffffffffffffffffffffffffffff1602179055506112b2806100536000396000f3fe60806040526004361061003f5760003560e01c806378942ae514610044578063a605bfb814610060578063c902c3ae1461007c578063e4a7d11b146100c1575b600080fd5b61005e60048036038101906100599190610da3565b6100dd565b005b61007a60048036038101906100759190610de3565b610574565b005b34801561008857600080fd5b506100a3600480360381019061009e9190610d76565b61089b565b6040516100b899989796959493929190610f90565b60405180910390f35b6100db60048036038101906100d69190610d76565b610b36565b005b6000600160008481526020019081526020016000206040518061012001604052908160008201805461010e90611154565b80601f016020809104026020016040519081016040528092919081815260200182805461013a90611154565b80156101875780601f1061015c57610100808354040283529160200191610187565b820191906000526020600020905b81548152906001019060200180831161016a57829003601f168201915b505050505081526020016001820160009054906101000a900473ffffffffffffffffffffffffffffffffffffffff1673ffffffffffffffffffffffffffffffffffffffff1673ffffffffffffffffffffffffffffffffffffffff1681526020016002820180546101f690611154565b80601f016020809104026020016040519081016040528092919081815260200182805461022290611154565b801561026f5780601f106102445761010080835404028352916020019161026f565b820191906000526020600020905b81548152906001019060200180831161025257829003601f168201915b5050505050815260200160038201805461028890611154565b80601f01602080910402602001604051908101604052809291908181526020018280546102b490611154565b80156103015780601f106102d657610100808354040283529160200191610301565b820191906000526020600020905b8154815290600101906020018083116102e457829003601f168201915b5050505050815260200160048201805461031a90611154565b80601f016020809104026020016040519081016040528092919081815260200182805461034690611154565b80156103935780601f1061036857610100808354040283529160200191610393565b820191906000526020600020905b81548152906001019060200180831161037657829003601f168201915b505050505081526020016005820154815260200160068201548152602001600782015481526020016008820160009054906101000a900460ff16151515158152505090508060e001514210156103e857600080fd5b811561046a5760008054906101000a900473ffffffffffffffffffffffffffffffffffffffff1673ffffffffffffffffffffffffffffffffffffffff166108fc60028360a001516104399190611075565b9081150290604051600060405180830381858888f19350505050158015610464573d6000803e3d6000fd5b506104c6565b806020015173ffffffffffffffffffffffffffffffffffffffff166108fc60028360a001516104999190611075565b9081150290604051600060405180830381858888f193505050501580156104c4573d6000803e3d6000fd5b505b60016000848152602001908152602001600020600080820160006104ea9190610bfe565b6001820160006101000a81549073ffffffffffffffffffffffffffffffffffffffff02191690556002820160006105219190610bfe565b6003820160006105319190610bfe565b6004820160006105419190610bfe565b6005820160009055600682016000905560078201600090556008820160006101000a81549060ff02191690555050505050565b60008054906101000a900473ffffffffffffffffffffffffffffffffffffffff1673ffffffffffffffffffffffffffffffffffffffff163373ffffffffffffffffffffffffffffffffffffffff1614610602576040517f08c379a00000000000000000000000000000000000000000000000000000000081526004016105f990611039565b60405180910390fd5b82821161060e57600080fd5b60006040518061012001604052808d8d8080601f016020809104026020016040519081016040528093929190818152602001838380828437600081840152601f19601f820116905080830192505050505050508152602001600073ffffffffffffffffffffffffffffffffffffffff1681526020018b8b8080601f016020809104026020016040519081016040528093929190818152602001838380828437600081840152601f19601f82011690508083019250505050505050815260200189898080601f016020809104026020016040519081016040528093929190818152602001838380828437600081840152601f19601f82011690508083019250505050505050815260200187878080601f016020809104026020016040519081016040528093929190818152602001838380828437600081840152601f19601f820116905080830192505050505050508152602001348152602001858152602001848152602001600015158152509050806001600084815260200190815260200160002060008201518160000190805190602001906107ac929190610c3e565b5060208201518160010160006101000a81548173ffffffffffffffffffffffffffffffffffffffff021916908373ffffffffffffffffffffffffffffffffffffffff1602179055506040820151816002019080519060200190610810929190610c3e565b50606082015181600301908051906020019061082d929190610c3e565b50608082015181600401908051906020019061084a929190610c3e565b5060a0820151816005015560c0820151816006015560e082015181600701556101008201518160080160006101000a81548160ff021916908315150217905550905050505050505050505050505050565b60016020528060005260406000206000915090508060000180546108be90611154565b80601f01602080910402602001604051908101604052809291908181526020018280546108ea90611154565b80156109375780601f1061090c57610100808354040283529160200191610937565b820191906000526020600020905b81548152906001019060200180831161091a57829003601f168201915b5050505050908060010160009054906101000a900473ffffffffffffffffffffffffffffffffffffffff169080600201805461097290611154565b80601f016020809104026020016040519081016040528092919081815260200182805461099e90611154565b80156109eb5780601f106109c0576101008083540402835291602001916109eb565b820191906000526020600020905b8154815290600101906020018083116109ce57829003601f168201915b505050505090806003018054610a0090611154565b80601f0160208091040260200160405190810160405280929190818152602001828054610a2c90611154565b8015610a795780601f10610a4e57610100808354040283529160200191610a79565b820191906000526020600020905b815481529060010190602001808311610a5c57829003601f168201915b505050505090806004018054610a8e90611154565b80601f0160208091040260200160405190810160405280929190818152602001828054610aba90611154565b8015610b075780601f10610adc57610100808354040283529160200191610b07565b820191906000526020600020905b815481529060010190602001808311610aea57829003601f168201915b5050505050908060050154908060060154908060070154908060080160009054906101000a900460ff16905089565b60008054906101000a900473ffffffffffffffffffffffffffffffffffffffff1673ffffffffffffffffffffffffffffffffffffffff163373ffffffffffffffffffffffffffffffffffffffff161415610b8f57600080fd5b60006001600083815260200190815260200160002090508060050154341015610bb757600080fd5b338160010160006101000a81548173ffffffffffffffffffffffffffffffffffffffff021916908373ffffffffffffffffffffffffffffffffffffffff1602179055505050565b508054610c0a90611154565b6000825580601f10610c1c5750610c3b565b601f016020900490600052602060002090810190610c3a9190610cc4565b5b50565b828054610c4a90611154565b90600052602060002090601f016020900481019282610c6c5760008555610cb3565b82601f10610c8557805160ff1916838001178555610cb3565b82800160010185558215610cb3579182015b82811115610cb2578251825591602001919060010190610c97565b5b509050610cc09190610cc4565b5090565b5b80821115610cdd576000816000905550600101610cc5565b5090565b600081359050610cf081611237565b92915050565b600081359050610d058161124e565b92915050565b60008083601f840112610d2157610d206111e9565b5b8235905067ffffffffffffffff811115610d3e57610d3d6111e4565b5b602083019150836001820283011115610d5a57610d596111ee565b5b9250929050565b600081359050610d7081611265565b92915050565b600060208284031215610d8c57610d8b6111f8565b5b6000610d9a84828501610cf6565b91505092915050565b60008060408385031215610dba57610db96111f8565b5b6000610dc885828601610cf6565b9250506020610dd985828601610ce1565b9150509250929050565b600080600080600080600080600080600060e08c8e031215610e0857610e076111f8565b5b60008c013567ffffffffffffffff811115610e2657610e256111f3565b5b610e328e828f01610d0b565b9b509b505060208c013567ffffffffffffffff811115610e5557610e546111f3565b5b610e618e828f01610d0b565b995099505060408c013567ffffffffffffffff811115610e8457610e836111f3565b5b610e908e828f01610d0b565b975097505060608c013567ffffffffffffffff811115610eb357610eb26111f3565b5b610ebf8e828f01610d0b565b95509550506080610ed28e828f01610d61565b93505060a0610ee38e828f01610d61565b92505060c0610ef48e828f01610cf6565b9150509295989b509295989b9093969950565b610f10816110cf565b82525050565b610f1f816110e1565b82525050565b6000610f3082611059565b610f3a8185611064565b9350610f4a818560208601611121565b610f53816111fd565b840191505092915050565b6000610f6b600d83611064565b9150610f768261120e565b602082019050919050565b610f8a81611117565b82525050565b6000610120820190508181036000830152610fab818c610f25565b9050610fba602083018b610f07565b8181036040830152610fcc818a610f25565b90508181036060830152610fe08189610f25565b90508181036080830152610ff48188610f25565b905061100360a0830187610f81565b61101060c0830186610f81565b61101d60e0830185610f81565b61102b610100830184610f16565b9a9950505050505050505050565b6000602082019050818103600083015261105281610f5e565b9050919050565b600081519050919050565b600082825260208201905092915050565b600061108082611117565b915061108b83611117565b9250817fffffffffffffffffffffffffffffffffffffffffffffffffffffffffffffffff04831182151516156110c4576110c3611186565b5b828202905092915050565b60006110da826110f7565b9050919050565b60008115159050919050565b6000819050919050565b600073ffffffffffffffffffffffffffffffffffffffff82169050919050565b6000819050919050565b60005b8381101561113f578082015181840152602081019050611124565b8381111561114e576000848401525b50505050565b6000600282049050600182168061116c57607f821691505b602082108114156111805761117f6111b5565b5b50919050565b7f4e487b7100000000000000000000000000000000000000000000000000000000600052601160045260246000fd5b7f4e487b7100000000000000000000000000000000000000000000000000000000600052602260045260246000fd5b600080fd5b600080fd5b600080fd5b600080fd5b600080fd5b6000601f19601f8301169050919050565b7f4d757374206265206f776e657200000000000000000000000000000000000000600082015250565b611240816110e1565b811461124b57600080fd5b50565b611257816110ed565b811461126257600080fd5b50565b61126e81611117565b811461127957600080fd5b5056fea2646970667358221220848c59eb0fc21eff4509cd4360cd80693435a8d38fcab3efbb05a66334059d3864736f6c63430008070033",
  "immutableReferences": {},
  "source": "// SPDX-License-Identifier: MIT\npragma solidity ^0.8.6;\n\ncontract Gambler {\n    address private owner;\n\n    mapping(bytes32 => Bet) public bets;\n\n    constructor() payable {\n        owner = msg.sender;\n    }\n\n    modifier onlyOwner() {\n        require(msg.sender == owner, \"Must be owner\");\n        _;\n    }\n\n    function createBet(\n        string calldata sport,\n        string calldata ownerPick,\n        string calldata otherPick,\n        string calldata eventName,\n        uint256 cutoffDate,\n        uint256 settleDate,\n        bytes32 key\n    ) external payable onlyOwner {\n        require(settleDate > cutoffDate);\n        Bet memory bet = Bet(\n            sport,\n            address(0x0),\n            ownerPick,\n            otherPick,\n            eventName,\n            msg.value,\n            cutoffDate,\n            settleDate,\n            false\n        );\n        bets[key] = bet;\n    }\n\n    function acceptBet(bytes32 key) external payable {\n        require(msg.sender != owner);\n        Bet storage bet = bets[key];\n        require(msg.value >= bet.amount);\n        bet.competitor = msg.sender;\n    }\n\n    function resolveBet(bytes32 key, bool didIWin) external payable {\n        // require(msg.sender == address(0x0));\n        Bet memory bet = bets[key];\n        require(block.timestamp >= bet.settleDate);\n        if (didIWin) {\n            payable(owner).transfer(bet.amount * 2);\n        } else {\n            payable(bet.competitor).transfer(bet.amount * 2);\n        }\n        delete bets[key];\n    }\n\n    struct Bet {\n        string sport;\n        address competitor;\n        string ownerPick;\n        string otherPick;\n        string eventName;\n        uint256 amount;\n        uint256 cutoffDate;\n        uint256 settleDate;\n        bool didIWin;\n    }\n}\n",
  "sourcePath": "/home/samg/Code/eth_stuff/gamble/contracts/Gambler.sol",
  "compiler": {
    "name": "solc",
    "version": "0.8.7+commit.e28d00a7.Emscripten.clang"
  },
  "schemaVersion": "3.4.1",
  "updatedAt": "2021-08-29T22:12:19.511Z",
  "networkType": "ethereum",
  "devdoc": {
    "kind": "dev",
    "methods": {},
    "version": 1
  },
  "userdoc": {
    "kind": "user",
    "methods": {},
    "version": 1
  }
}