{
  "contractName": "Gambler",
  "abi": [
    {
      "inputs": [],
      "stateMutability": "payable",
      "type": "constructor",
      "payable": true
    },
    {
      "inputs": [],
      "name": "betCount",
      "outputs": [
        {
          "internalType": "uint16",
          "name": "",
          "type": "uint16"
        }
      ],
      "stateMutability": "view",
      "type": "function",
      "constant": true
    },
    {
      "inputs": [
        {
          "internalType": "uint16",
          "name": "",
          "type": "uint16"
        }
      ],
      "name": "bets",
      "outputs": [
        {
          "internalType": "address",
          "name": "competitor",
          "type": "address"
        },
        {
          "internalType": "string",
          "name": "fighterOne",
          "type": "string"
        },
        {
          "internalType": "string",
          "name": "fighterTwo",
          "type": "string"
        },
        {
          "internalType": "string",
          "name": "eventName",
          "type": "string"
        },
        {
          "internalType": "bool",
          "name": "pickedFirst",
          "type": "bool"
        },
        {
          "internalType": "uint256",
          "name": "amount",
          "type": "uint256"
        },
        {
          "internalType": "uint256",
          "name": "cutoffDate",
          "type": "uint256"
        },
        {
          "internalType": "uint256",
          "name": "settleDate",
          "type": "uint256"
        },
        {
          "internalType": "bool",
          "name": "didIWin",
          "type": "bool"
        }
      ],
      "stateMutability": "view",
      "type": "function",
      "constant": true
    },
    {
      "inputs": [
        {
          "internalType": "string",
          "name": "fighter",
          "type": "string"
        },
        {
          "internalType": "string",
          "name": "otherFighter",
          "type": "string"
        },
        {
          "internalType": "string",
          "name": "eventName",
          "type": "string"
        },
        {
          "internalType": "bool",
          "name": "myPick",
          "type": "bool"
        },
        {
          "internalType": "uint256",
          "name": "cutoffDate",
          "type": "uint256"
        },
        {
          "internalType": "uint256",
          "name": "settleDate",
          "type": "uint256"
        }
      ],
      "name": "createBet",
      "outputs": [],
      "stateMutability": "payable",
      "type": "function",
      "payable": true
    },
    {
      "inputs": [
        {
          "internalType": "uint16",
          "name": "key",
          "type": "uint16"
        }
      ],
      "name": "acceptBet",
      "outputs": [],
      "stateMutability": "payable",
      "type": "function",
      "payable": true
    },
    {
      "inputs": [
        {
          "internalType": "uint16",
          "name": "key",
          "type": "uint16"
        },
        {
          "internalType": "bool",
          "name": "didIWin",
          "type": "bool"
        }
      ],
      "name": "resolveBet",
      "outputs": [],
      "stateMutability": "payable",
      "type": "function",
      "payable": true
    }
  ],
  "bytecode": "0x6080604052336000806101000a81548173ffffffffffffffffffffffffffffffffffffffff021916908373ffffffffffffffffffffffffffffffffffffffff1602179055506000600260006101000a81548161ffff021916908361ffff160217905550611249806100716000396000f3fe60806040526004361061004a5760003560e01c80631de62a1b1461004f5780634c8088ec1461006b5780638cf5d2e91461008757806397efe3f6146100a3578063cf094497146100e8575b600080fd5b61006960048036038101906100649190610ddf565b610113565b005b61008560048036038101906100809190610cf0565b6101e3565b005b6100a1600480360381019061009c9190610e0c565b610510565b005b3480156100af57600080fd5b506100ca60048036038101906100c59190610ddf565b610944565b6040516100df99989796959493929190610ee4565b60405180910390f35b3480156100f457600080fd5b506100fd610b64565b60405161010a9190610fa6565b60405180910390f35b60008054906101000a900473ffffffffffffffffffffffffffffffffffffffff1673ffffffffffffffffffffffffffffffffffffffff163373ffffffffffffffffffffffffffffffffffffffff16141561016c57600080fd5b6000600160008361ffff1661ffff1681526020019081526020016000209050806005015434101561019c57600080fd5b338160000160006101000a81548173ffffffffffffffffffffffffffffffffffffffff021916908373ffffffffffffffffffffffffffffffffffffffff1602179055505050565b60008054906101000a900473ffffffffffffffffffffffffffffffffffffffff1673ffffffffffffffffffffffffffffffffffffffff163373ffffffffffffffffffffffffffffffffffffffff1614610271576040517f08c379a000000000000000000000000000000000000000000000000000000000815260040161026890610f86565b60405180910390fd5b81811161027d57600080fd5b6000604051806101200160405280600073ffffffffffffffffffffffffffffffffffffffff1681526020018b8b8080601f016020809104026020016040519081016040528093929190818152602001838380828437600081840152601f19601f82011690508083019250505050505050815260200189898080601f016020809104026020016040519081016040528093929190818152602001838380828437600081840152601f19601f82011690508083019250505050505050815260200187878080601f016020809104026020016040519081016040528093929190818152602001838380828437600081840152601f19601f820116905080830192505050505050508152602001851515815260200134815260200184815260200183815260200160001515815250905060006002600081819054906101000a900461ffff16809291906103cb906110f2565b91906101000a81548161ffff021916908361ffff160217905550905081600160008361ffff1661ffff16815260200190815260200160002060008201518160000160006101000a81548173ffffffffffffffffffffffffffffffffffffffff021916908373ffffffffffffffffffffffffffffffffffffffff1602179055506020820151816001019080519060200190610466929190610b78565b506040820151816002019080519060200190610483929190610b78565b5060608201518160030190805190602001906104a0929190610b78565b5060808201518160040160006101000a81548160ff02191690831515021790555060a0820151816005015560c0820151816006015560e082015181600701556101008201518160080160006101000a81548160ff0219169083151502179055509050505050505050505050505050565b6000600160008461ffff1661ffff168152602001908152602001600020604051806101200160405290816000820160009054906101000a900473ffffffffffffffffffffffffffffffffffffffff1673ffffffffffffffffffffffffffffffffffffffff1673ffffffffffffffffffffffffffffffffffffffff16815260200160018201805461059f906110c0565b80601f01602080910402602001604051908101604052809291908181526020018280546105cb906110c0565b80156106185780601f106105ed57610100808354040283529160200191610618565b820191906000526020600020905b8154815290600101906020018083116105fb57829003601f168201915b50505050508152602001600282018054610631906110c0565b80601f016020809104026020016040519081016040528092919081815260200182805461065d906110c0565b80156106aa5780601f1061067f576101008083540402835291602001916106aa565b820191906000526020600020905b81548152906001019060200180831161068d57829003601f168201915b505050505081526020016003820180546106c3906110c0565b80601f01602080910402602001604051908101604052809291908181526020018280546106ef906110c0565b801561073c5780601f106107115761010080835404028352916020019161073c565b820191906000526020600020905b81548152906001019060200180831161071f57829003601f168201915b505050505081526020016004820160009054906101000a900460ff161515151581526020016005820154815260200160068201548152602001600782015481526020016008820160009054906101000a900460ff16151515158152505090508060e001514210156107ac57600080fd5b811561082e5760008054906101000a900473ffffffffffffffffffffffffffffffffffffffff1673ffffffffffffffffffffffffffffffffffffffff166108fc60028360a001516107fd9190610fdd565b9081150290604051600060405180830381858888f19350505050158015610828573d6000803e3d6000fd5b5061088a565b806000015173ffffffffffffffffffffffffffffffffffffffff166108fc60028360a0015161085d9190610fdd565b9081150290604051600060405180830381858888f19350505050158015610888573d6000803e3d6000fd5b505b600160008461ffff1661ffff168152602001908152602001600020600080820160006101000a81549073ffffffffffffffffffffffffffffffffffffffff02191690556001820160006108dd9190610bfe565b6002820160006108ed9190610bfe565b6003820160006108fd9190610bfe565b6004820160006101000a81549060ff02191690556005820160009055600682016000905560078201600090556008820160006101000a81549060ff02191690555050505050565b60016020528060005260406000206000915090508060000160009054906101000a900473ffffffffffffffffffffffffffffffffffffffff169080600101805461098d906110c0565b80601f01602080910402602001604051908101604052809291908181526020018280546109b9906110c0565b8015610a065780601f106109db57610100808354040283529160200191610a06565b820191906000526020600020905b8154815290600101906020018083116109e957829003601f168201915b505050505090806002018054610a1b906110c0565b80601f0160208091040260200160405190810160405280929190818152602001828054610a47906110c0565b8015610a945780601f10610a6957610100808354040283529160200191610a94565b820191906000526020600020905b815481529060010190602001808311610a7757829003601f168201915b505050505090806003018054610aa9906110c0565b80601f0160208091040260200160405190810160405280929190818152602001828054610ad5906110c0565b8015610b225780601f10610af757610100808354040283529160200191610b22565b820191906000526020600020905b815481529060010190602001808311610b0557829003601f168201915b5050505050908060040160009054906101000a900460ff16908060050154908060060154908060070154908060080160009054906101000a900460ff16905089565b600260009054906101000a900461ffff1681565b828054610b84906110c0565b90600052602060002090601f016020900481019282610ba65760008555610bed565b82601f10610bbf57805160ff1916838001178555610bed565b82800160010185558215610bed579182015b82811115610bec578251825591602001919060010190610bd1565b5b509050610bfa9190610c3e565b5090565b508054610c0a906110c0565b6000825580601f10610c1c5750610c3b565b601f016020900490600052602060002090810190610c3a9190610c3e565b5b50565b5b80821115610c57576000816000905550600101610c3f565b5090565b600081359050610c6a816111ce565b92915050565b60008083601f840112610c8657610c85611180565b5b8235905067ffffffffffffffff811115610ca357610ca261117b565b5b602083019150836001820283011115610cbf57610cbe611185565b5b9250929050565b600081359050610cd5816111e5565b92915050565b600081359050610cea816111fc565b92915050565b600080600080600080600080600060c08a8c031215610d1257610d1161118f565b5b60008a013567ffffffffffffffff811115610d3057610d2f61118a565b5b610d3c8c828d01610c70565b995099505060208a013567ffffffffffffffff811115610d5f57610d5e61118a565b5b610d6b8c828d01610c70565b975097505060408a013567ffffffffffffffff811115610d8e57610d8d61118a565b5b610d9a8c828d01610c70565b95509550506060610dad8c828d01610c5b565b9350506080610dbe8c828d01610cdb565b92505060a0610dcf8c828d01610cdb565b9150509295985092959850929598565b600060208284031215610df557610df461118f565b5b6000610e0384828501610cc6565b91505092915050565b60008060408385031215610e2357610e2261118f565b5b6000610e3185828601610cc6565b9250506020610e4285828601610c5b565b9150509250929050565b610e5581611037565b82525050565b610e6481611049565b82525050565b6000610e7582610fc1565b610e7f8185610fcc565b9350610e8f81856020860161108d565b610e9881611194565b840191505092915050565b6000610eb0600d83610fcc565b9150610ebb826111a5565b602082019050919050565b610ecf81611055565b82525050565b610ede81611083565b82525050565b600061012082019050610efa600083018c610e4c565b8181036020830152610f0c818b610e6a565b90508181036040830152610f20818a610e6a565b90508181036060830152610f348189610e6a565b9050610f436080830188610e5b565b610f5060a0830187610ed5565b610f5d60c0830186610ed5565b610f6a60e0830185610ed5565b610f78610100830184610e5b565b9a9950505050505050505050565b60006020820190508181036000830152610f9f81610ea3565b9050919050565b6000602082019050610fbb6000830184610ec6565b92915050565b600081519050919050565b600082825260208201905092915050565b6000610fe882611083565b9150610ff383611083565b9250817fffffffffffffffffffffffffffffffffffffffffffffffffffffffffffffffff048311821515161561102c5761102b61111d565b5b828202905092915050565b600061104282611063565b9050919050565b60008115159050919050565b600061ffff82169050919050565b600073ffffffffffffffffffffffffffffffffffffffff82169050919050565b6000819050919050565b60005b838110156110ab578082015181840152602081019050611090565b838111156110ba576000848401525b50505050565b600060028204905060018216806110d857607f821691505b602082108114156110ec576110eb61114c565b5b50919050565b60006110fd82611055565b915061ffff8214156111125761111161111d565b5b600182019050919050565b7f4e487b7100000000000000000000000000000000000000000000000000000000600052601160045260246000fd5b7f4e487b7100000000000000000000000000000000000000000000000000000000600052602260045260246000fd5b600080fd5b600080fd5b600080fd5b600080fd5b600080fd5b6000601f19601f8301169050919050565b7f4d757374206265206f776e657200000000000000000000000000000000000000600082015250565b6111d781611049565b81146111e257600080fd5b50565b6111ee81611055565b81146111f957600080fd5b50565b61120581611083565b811461121057600080fd5b5056fea2646970667358221220e9dbd8a11965e66e3fa90f179e95c0140c0ed9240ff43304377aafc5af63782a64736f6c63430008070033",
  "immutableReferences": {},
  "source": "// SPDX-License-Identifier: MIT\npragma solidity ^0.8.6;\n\ncontract Gambler {\n    address private owner;\n\n    mapping(uint16 => Bet) public bets;\n    uint16 public betCount;\n\n    constructor() payable {\n        owner = msg.sender;\n        betCount = 0;\n    }\n\n    modifier onlyOwner() {\n        require(msg.sender == owner, \"Must be owner\");\n        _;\n    }\n\n    function createBet(\n        string calldata fighter,\n        string calldata otherFighter,\n        string calldata eventName,\n        bool myPick,\n        uint256 cutoffDate,\n        uint256 settleDate\n    ) external payable onlyOwner {\n        require(settleDate > cutoffDate);\n        Bet memory bet = Bet(\n            address(0x0),\n            fighter,\n            otherFighter,\n            eventName,\n            myPick,\n            msg.value,\n            cutoffDate,\n            settleDate,\n            false\n        );\n        uint16 key = betCount++;\n        bets[key] = bet;\n    }\n\n    function acceptBet(uint16 key) external payable {\n        require(msg.sender != owner);\n        Bet storage bet = bets[key];\n        require(msg.value >= bet.amount);\n        bet.competitor = msg.sender;\n    }\n\n    function resolveBet(uint16 key, bool didIWin) external payable {\n        // require(msg.sender == address(0x0));\n        Bet memory bet = bets[key];\n        require(block.timestamp >= bet.settleDate);\n        if (didIWin) {\n            payable(owner).transfer(bet.amount * 2);\n        } else {\n            payable(bet.competitor).transfer(bet.amount * 2);\n        }\n        delete bets[key];\n    }\n\n    struct Bet {\n        address competitor;\n        string fighterOne;\n        string fighterTwo;\n        string eventName;\n        bool pickedFirst;\n        uint256 amount;\n        uint256 cutoffDate;\n        uint256 settleDate;\n        bool didIWin;\n    }\n}\n",
  "sourcePath": "/home/samg/Code/eth_stuff/gamble/contracts/Gambler.sol",
  "compiler": {
    "name": "solc",
    "version": "0.8.7+commit.e28d00a7.Emscripten.clang"
  },
  "schemaVersion": "3.4.1",
  "updatedAt": "2021-08-18T22:09:19.864Z",
  "networkType": "ethereum",
  "devdoc": {
    "kind": "dev",
    "methods": {},
    "version": 1
  },
  "userdoc": {
    "kind": "user",
    "methods": {},
    "version": 1
  }
}